{
  "contractName": "EventTickets",
  "abi": [
    {
      "constant": true,
      "inputs": [],
      "name": "owner",
      "outputs": [
        {
          "name": "",
          "type": "address"
        }
      ],
      "payable": false,
      "stateMutability": "view",
      "type": "function",
      "signature": "0x8da5cb5b"
    },
    {
      "inputs": [
        {
          "name": "_desc",
          "type": "string"
        },
        {
          "name": "_web",
          "type": "string"
        },
        {
          "name": "_tickets",
          "type": "uint256"
        }
      ],
      "payable": false,
      "stateMutability": "nonpayable",
      "type": "constructor",
      "signature": "constructor"
    },
    {
      "anonymous": false,
      "inputs": [
        {
          "indexed": false,
          "name": "buyer",
          "type": "address"
        },
        {
          "indexed": false,
          "name": "numTickets",
          "type": "uint256"
        }
      ],
      "name": "LogBuyTickets",
      "type": "event",
      "signature": "0x72240c1be87ee789414e12fc30844d39a55d1eaf3b8741489fe381ad2b6cdd47"
    },
    {
      "anonymous": false,
      "inputs": [
        {
          "indexed": false,
          "name": "accountRefunded",
          "type": "address"
        },
        {
          "indexed": false,
          "name": "numTickets",
          "type": "uint256"
        }
      ],
      "name": "LogGetRefund",
      "type": "event",
      "signature": "0x492e1d962a477f77890c7cfdb563d7ddc58fee6505741794fa5700ada3c16041"
    },
    {
      "anonymous": false,
      "inputs": [
        {
          "indexed": false,
          "name": "owner",
          "type": "address"
        },
        {
          "indexed": false,
          "name": "balance",
          "type": "uint256"
        }
      ],
      "name": "LogEndSale",
      "type": "event",
      "signature": "0x21e7b2f8578199ba3904a63b7cd799784c8cadde57dde563a7de95ef792e256c"
    },
    {
      "constant": true,
      "inputs": [],
      "name": "readEvent",
      "outputs": [
        {
          "name": "description",
          "type": "string"
        },
        {
          "name": "website",
          "type": "string"
        },
        {
          "name": "tickets",
          "type": "uint256"
        },
        {
          "name": "sales",
          "type": "uint256"
        },
        {
          "name": "isOpen",
          "type": "bool"
        }
      ],
      "payable": false,
      "stateMutability": "view",
      "type": "function",
      "signature": "0x05aea97c"
    },
    {
      "constant": true,
      "inputs": [
        {
          "name": "buyer",
          "type": "address"
        }
      ],
      "name": "getBuyerTicketCount",
      "outputs": [
        {
          "name": "count",
          "type": "uint256"
        }
      ],
      "payable": false,
      "stateMutability": "view",
      "type": "function",
      "signature": "0xedfb9167"
    },
    {
      "constant": false,
      "inputs": [
        {
          "name": "_numTickets",
          "type": "uint256"
        }
      ],
      "name": "buyTickets",
      "outputs": [],
      "payable": true,
      "stateMutability": "payable",
      "type": "function",
      "signature": "0x2f366637"
    },
    {
      "constant": false,
      "inputs": [],
      "name": "getRefund",
      "outputs": [],
      "payable": false,
      "stateMutability": "nonpayable",
      "type": "function",
      "signature": "0xb2d5ae44"
    },
    {
      "constant": false,
      "inputs": [],
      "name": "endSale",
      "outputs": [],
      "payable": false,
      "stateMutability": "nonpayable",
      "type": "function",
      "signature": "0x380d831b"
    }
  ],
  "bytecode": "0x6080604052336000806101000a81548173ffffffffffffffffffffffffffffffffffffffff021916908373ffffffffffffffffffffffffffffffffffffffff160217905550606460015534801561005557600080fd5b50604051610bcb380380610bcb8339810180604052606081101561007857600080fd5b81019080805164010000000081111561009057600080fd5b828101905060208101848111156100a657600080fd5b81518560018202830111640100000000821117156100c357600080fd5b505092919060200180516401000000008111156100df57600080fd5b828101905060208101848111156100f557600080fd5b815185600182028301116401000000008211171561011257600080fd5b505092919060200180519060200190929190505050826002600001908051906020019061014092919061018a565b50816002600101908051906020019061015a92919061018a565b508060028001819055506001600260050160006101000a81548160ff02191690831515021790555050505061022f565b828054600181600116156101000203166002900490600052602060002090601f016020900481019282601f106101cb57805160ff19168380011785556101f9565b828001600101855582156101f9579182015b828111156101f85782518255916020019190600101906101dd565b5b509050610206919061020a565b5090565b61022c91905b80821115610228576000816000905550600101610210565b5090565b90565b61098d8061023e6000396000f3fe608060405260043610610078576000357c0100000000000000000000000000000000000000000000000000000000900463ffffffff16806305aea97c1461007d5780632f36663714610192578063380d831b146101c05780638da5cb5b146101d7578063b2d5ae441461022e578063edfb916714610245575b600080fd5b34801561008957600080fd5b506100926102aa565b60405180806020018060200186815260200185815260200184151515158152602001838103835288818151815260200191508051906020019080838360005b838110156100ec5780820151818401526020810190506100d1565b50505050905090810190601f1680156101195780820380516001836020036101000a031916815260200191505b50838103825287818151815260200191508051906020019080838360005b83811015610152578082015181840152602081019050610137565b50505050905090810190601f16801561017f5780820380516001836020036101000a031916815260200191505b5097505050505050505060405180910390f35b6101be600480360360208110156101a857600080fd5b8101908080359060200190929190505050610423565b005b3480156101cc57600080fd5b506101d56105a3565b005b3480156101e357600080fd5b506101ec610746565b604051808273ffffffffffffffffffffffffffffffffffffffff1673ffffffffffffffffffffffffffffffffffffffff16815260200191505060405180910390f35b34801561023a57600080fd5b5061024361076b565b005b34801561025157600080fd5b506102946004803603602081101561026857600080fd5b81019080803573ffffffffffffffffffffffffffffffffffffffff169060200190929190505050610915565b6040518082815260200191505060405180910390f35b6060806000806000600260000160026001016002800154600260030154600260050160009054906101000a900460ff16848054600181600116156101000203166002900480601f01602080910402602001604051908101604052809291908181526020018280546001816001161561010002031660029004801561036f5780601f106103445761010080835404028352916020019161036f565b820191906000526020600020905b81548152906001019060200180831161035257829003601f168201915b50505050509450838054600181600116156101000203166002900480601f01602080910402602001604051908101604052809291908181526020018280546001816001161561010002031660029004801561040b5780601f106103e05761010080835404028352916020019161040b565b820191906000526020600020905b8154815290600101906020018083116103ee57829003601f168201915b50505050509350945094509450945094509091929394565b60011515600260050160009054906101000a900460ff16151514151561044857600080fd5b6001548102341015151561045b57600080fd5b806002600301546002800154031015151561047557600080fd5b80600260040160003373ffffffffffffffffffffffffffffffffffffffff1673ffffffffffffffffffffffffffffffffffffffff168152602001908152602001600020600082825401925050819055508060026003016000828254019250508190555060006001548202340390506000811115610534573373ffffffffffffffffffffffffffffffffffffffff166108fc829081150290604051600060405180830381858888f19350505050158015610532573d6000803e3d6000fd5b505b7f72240c1be87ee789414e12fc30844d39a55d1eaf3b8741489fe381ad2b6cdd473383604051808373ffffffffffffffffffffffffffffffffffffffff1673ffffffffffffffffffffffffffffffffffffffff1681526020018281526020019250505060405180910390a15050565b6000809054906101000a900473ffffffffffffffffffffffffffffffffffffffff1673ffffffffffffffffffffffffffffffffffffffff163373ffffffffffffffffffffffffffffffffffffffff161415156105fe57600080fd5b6000600260050160006101000a81548160ff02191690831515021790555060003073ffffffffffffffffffffffffffffffffffffffff163190506000809054906101000a900473ffffffffffffffffffffffffffffffffffffffff1673ffffffffffffffffffffffffffffffffffffffff166108fc3073ffffffffffffffffffffffffffffffffffffffff16319081150290604051600060405180830381858888f193505050501580156106b6573d6000803e3d6000fd5b507f21e7b2f8578199ba3904a63b7cd799784c8cadde57dde563a7de95ef792e256c6000809054906101000a900473ffffffffffffffffffffffffffffffffffffffff1682604051808373ffffffffffffffffffffffffffffffffffffffff1673ffffffffffffffffffffffffffffffffffffffff1681526020018281526020019250505060405180910390a150565b6000809054906101000a900473ffffffffffffffffffffffffffffffffffffffff1681565b6000600260040160003373ffffffffffffffffffffffffffffffffffffffff1673ffffffffffffffffffffffffffffffffffffffff168152602001908152602001600020541115156107bc57600080fd5b6000600260040160003373ffffffffffffffffffffffffffffffffffffffff1673ffffffffffffffffffffffffffffffffffffffff16815260200190815260200160002054905080600260030160008282540392505081905550600260040160003373ffffffffffffffffffffffffffffffffffffffff1673ffffffffffffffffffffffffffffffffffffffff168152602001908152602001600020600090553373ffffffffffffffffffffffffffffffffffffffff166108fc60015483029081150290604051600060405180830381858888f193505050501580156108a6573d6000803e3d6000fd5b507f492e1d962a477f77890c7cfdb563d7ddc58fee6505741794fa5700ada3c160413382604051808373ffffffffffffffffffffffffffffffffffffffff1673ffffffffffffffffffffffffffffffffffffffff1681526020018281526020019250505060405180910390a150565b6000600260040160008373ffffffffffffffffffffffffffffffffffffffff1673ffffffffffffffffffffffffffffffffffffffff16815260200190815260200160002054905091905056fea165627a7a723058208c74f0fa2ef6d6da101ab691c4df7ee62e3876d460f04c08a0e0766077e232a00029",
  "source": "pragma solidity ^0.5.0;\n \ncontract EventTickets {\n    address payable public owner = msg.sender;\n    uint   PRICE_TICKET = 100 wei;\n \n    struct Event {\n        string description;\n        string website;\n        uint tickets;\n        uint sales;\n        mapping(address => uint) buyers;\n        bool isOpen;\n    }\n     \n    Event myEvent;\n\n    event LogBuyTickets(address buyer, uint numTickets);\n    event LogGetRefund(address accountRefunded, uint numTickets);\n    event LogEndSale(address owner, uint balance);\n\n    modifier onlyOwner() {\n        require(msg.sender == owner);\n        _;\n    }\n     \n    constructor(string memory _desc, string memory _web, uint _tickets) public {\n        myEvent.description = _desc;\n        myEvent.website = _web;\n        myEvent.tickets = _tickets;\n        myEvent.isOpen = true;\n    }\n     \n    function readEvent() view public returns(string memory description, string memory website, uint tickets, uint sales, bool isOpen) {\n        return (myEvent.description, myEvent.website, myEvent.tickets, myEvent.sales, myEvent.isOpen);\n    }\n\n    function getBuyerTicketCount(address buyer) view public returns(uint count){\n        return myEvent.buyers[buyer];\n    }\n     \n    function buyTickets(uint _numTickets) public payable {\n        require(myEvent.isOpen == true);\n        require(msg.value >= _numTickets * PRICE_TICKET);\n        require(myEvent.tickets - myEvent.sales >= _numTickets);\n        myEvent.buyers[msg.sender] += _numTickets;\n        myEvent.sales += _numTickets;\n        uint paymentChange = msg.value - _numTickets * PRICE_TICKET;\n        if (paymentChange > 0) {\n            address(msg.sender).transfer(paymentChange);\n        }\n        emit LogBuyTickets(msg.sender, _numTickets);\n    }\n     \n    function getRefund() public {\n        require(myEvent.buyers[msg.sender] > 0);\n        uint refundTickets = myEvent.buyers[msg.sender];\n        myEvent.sales -= refundTickets;\n        delete myEvent.buyers[msg.sender];\n        address(msg.sender).transfer(refundTickets * PRICE_TICKET);\n        emit LogGetRefund(msg.sender, refundTickets);\n    }\n     \n    function endSale() onlyOwner public {\n        myEvent.isOpen = false;\n        uint balance = address(this).balance;\n        owner.transfer(address(this).balance);\n        emit LogEndSale(owner, balance);\n    }\n}",
  "sourcePath": "/home/josh/Documents/event-ticket-exercise/contracts/EventTickets.sol",
  "compiler": {
    "name": "solc",
    "version": "0.5.0+commit.1d4f565a.Emscripten.clang"
  },
  "schemaVersion": "3.0.6",
  "updatedAt": "2019-04-23T21:22:37.415Z",
  "devdoc": {
    "methods": {}
  },
  "userdoc": {
    "methods": {}
  }
}