{
  "contractName": "EventTicketsV2",
  "abi": [
    {
      "constant": false,
      "inputs": [
        {
          "name": "_desc",
          "type": "string"
        },
        {
          "name": "_web",
          "type": "string"
        },
        {
          "name": "_tickets",
          "type": "uint256"
        }
      ],
      "name": "addEvent",
      "outputs": [
        {
          "name": "",
          "type": "uint256"
        }
      ],
      "payable": false,
      "stateMutability": "nonpayable",
      "type": "function",
      "signature": "0x4da19f20"
    },
    {
      "constant": true,
      "inputs": [
        {
          "name": "_id",
          "type": "uint256"
        }
      ],
      "name": "readEvent",
      "outputs": [
        {
          "name": "",
          "type": "string"
        },
        {
          "name": "",
          "type": "string"
        },
        {
          "name": "",
          "type": "uint256"
        },
        {
          "name": "",
          "type": "uint256"
        },
        {
          "name": "",
          "type": "bool"
        }
      ],
      "payable": false,
      "stateMutability": "view",
      "type": "function",
      "signature": "0xe1ba30a9"
    },
    {
      "constant": false,
      "inputs": [
        {
          "name": "_id",
          "type": "uint256"
        },
        {
          "name": "_numTickets",
          "type": "uint256"
        }
      ],
      "name": "buyTickets",
      "outputs": [],
      "payable": true,
      "stateMutability": "payable",
      "type": "function",
      "signature": "0x8627df46"
    },
    {
      "constant": false,
      "inputs": [
        {
          "name": "_id",
          "type": "uint256"
        }
      ],
      "name": "getRefund",
      "outputs": [],
      "payable": false,
      "stateMutability": "nonpayable",
      "type": "function",
      "signature": "0xd2f0be99"
    },
    {
      "constant": true,
      "inputs": [
        {
          "name": "_id",
          "type": "uint256"
        }
      ],
      "name": "getBuyerNumberTickets",
      "outputs": [
        {
          "name": "",
          "type": "uint256"
        }
      ],
      "payable": false,
      "stateMutability": "view",
      "type": "function",
      "signature": "0x3ddedd38"
    },
    {
      "constant": false,
      "inputs": [
        {
          "name": "_id",
          "type": "uint256"
        }
      ],
      "name": "endSale",
      "outputs": [],
      "payable": false,
      "stateMutability": "nonpayable",
      "type": "function",
      "signature": "0x04d1a846"
    }
  ],
  "bytecode": "0x6080604052336000806101000a81548173ffffffffffffffffffffffffffffffffffffffff021916908373ffffffffffffffffffffffffffffffffffffffff160217905550670de0b6b3a764000060015534801561005c57600080fd5b50610ca28061006c6000396000f3fe608060405260043610610078576000357c0100000000000000000000000000000000000000000000000000000000900463ffffffff16806304d1a8461461007d5780633ddedd38146100b85780634da19f20146101075780638627df4614610284578063d2f0be99146102bc578063e1ba30a9146102f7575b600080fd5b34801561008957600080fd5b506100b6600480360360208110156100a057600080fd5b8101908080359060200190929190505050610430565b005b3480156100c457600080fd5b506100f1600480360360208110156100db57600080fd5b8101908080359060200190929190505050610545565b6040518082815260200191505060405180910390f35b34801561011357600080fd5b5061026e6004803603606081101561012a57600080fd5b810190808035906020019064010000000081111561014757600080fd5b82018360208201111561015957600080fd5b8035906020019184600183028401116401000000008311171561017b57600080fd5b91908080601f016020809104026020016040519081016040528093929190818152602001838380828437600081840152601f19601f820116905080830192505050505050509192919290803590602001906401000000008111156101de57600080fd5b8201836020820111156101f057600080fd5b8035906020019184600183028401116401000000008311171561021257600080fd5b91908080601f016020809104026020016040519081016040528093929190818152602001838380828437600081840152601f19601f820116905080830192505050505050509192919290803590602001909291905050506105a2565b6040518082815260200191505060405180910390f35b6102ba6004803603604081101561029a57600080fd5b8101908080359060200190929190803590602001909291905050506106de565b005b3480156102c857600080fd5b506102f5600480360360208110156102df57600080fd5b810190808035906020019092919050505061084a565b005b34801561030357600080fd5b506103306004803603602081101561031a57600080fd5b81019080803590602001909291905050506109ce565b60405180806020018060200186815260200185815260200184151515158152602001838103835288818151815260200191508051906020019080838360005b8381101561038a57808201518184015260208101905061036f565b50505050905090810190601f1680156103b75780820380516001836020036101000a031916815260200191505b50838103825287818151815260200191508051906020019080838360005b838110156103f05780820151818401526020810190506103d5565b50505050905090810190601f16801561041d5780820380516001836020036101000a031916815260200191505b5097505050505050505060405180910390f35b6000809054906101000a900473ffffffffffffffffffffffffffffffffffffffff1673ffffffffffffffffffffffffffffffffffffffff163373ffffffffffffffffffffffffffffffffffffffff1614151561048b57600080fd5b60006003600083815260200190815260200160002060050160006101000a81548160ff0219169083151502179055506000809054906101000a900473ffffffffffffffffffffffffffffffffffffffff1673ffffffffffffffffffffffffffffffffffffffff166108fc670de0b6b3a76400006003600085815260200190815260200160002060030154029081150290604051600060405180830381858888f19350505050158015610541573d6000803e3d6000fd5b5050565b60006003600083815260200190815260200160002060040160003373ffffffffffffffffffffffffffffffffffffffff1673ffffffffffffffffffffffffffffffffffffffff168152602001908152602001600020549050919050565b60008060009054906101000a900473ffffffffffffffffffffffffffffffffffffffff1673ffffffffffffffffffffffffffffffffffffffff163373ffffffffffffffffffffffffffffffffffffffff161415156105ff57600080fd5b610607610b9f565b8481600001819052508381602001819052508281604001818152505060018160800190151590811515815250506000600254905081600360006002548152602001908152602001600020600082015181600001908051906020019061066d929190610bd1565b50602082015181600101908051906020019061068a929190610bd1565b50604082015181600201556060820151816003015560808201518160050160006101000a81548160ff0219169083151502179055509050506002600081546001019190508190555080925050509392505050565b600115156003600084815260200190815260200160002060050160009054906101000a900460ff16151514151561071457600080fd5b6001548102341015151561072757600080fd5b8060036000848152602001908152602001600020600301546003600085815260200190815260200160002060020154031015151561076457600080fd5b806003600084815260200190815260200160002060040160003373ffffffffffffffffffffffffffffffffffffffff1673ffffffffffffffffffffffffffffffffffffffff1681526020019081526020016000206000828254019250508190555080600360008481526020019081526020016000206003016000828254019250508190555060006001548202340390506000811115610845573373ffffffffffffffffffffffffffffffffffffffff166108fc829081150290604051600060405180830381858888f19350505050158015610843573d6000803e3d6000fd5b505b505050565b60006003600083815260200190815260200160002060040160003373ffffffffffffffffffffffffffffffffffffffff1673ffffffffffffffffffffffffffffffffffffffff168152602001908152602001600020541115156108ac57600080fd5b60006003600083815260200190815260200160002060040160003373ffffffffffffffffffffffffffffffffffffffff1673ffffffffffffffffffffffffffffffffffffffff1681526020019081526020016000205490508060036000848152602001908152602001600020600301600082825403925050819055506003600083815260200190815260200160002060040160003373ffffffffffffffffffffffffffffffffffffffff1673ffffffffffffffffffffffffffffffffffffffff168152602001908152602001600020600090553373ffffffffffffffffffffffffffffffffffffffff166108fc60015483029081150290604051600060405180830381858888f193505050501580156109c9573d6000803e3d6000fd5b505050565b606080600080600060036000878152602001908152602001600020600001600360008881526020019081526020016000206001016003600089815260200190815260200160002060020154600360008a815260200190815260200160002060030154600360008b815260200190815260200160002060050160009054906101000a900460ff16848054600181600116156101000203166002900480601f016020809104026020016040519081016040528092919081815260200182805460018160011615610100020316600290048015610ae95780601f10610abe57610100808354040283529160200191610ae9565b820191906000526020600020905b815481529060010190602001808311610acc57829003601f168201915b50505050509450838054600181600116156101000203166002900480601f016020809104026020016040519081016040528092919081815260200182805460018160011615610100020316600290048015610b855780601f10610b5a57610100808354040283529160200191610b85565b820191906000526020600020905b815481529060010190602001808311610b6857829003601f168201915b505050505093509450945094509450945091939590929450565b60a060405190810160405280606081526020016060815260200160008152602001600081526020016000151581525090565b828054600181600116156101000203166002900490600052602060002090601f016020900481019282601f10610c1257805160ff1916838001178555610c40565b82800160010185558215610c40579182015b82811115610c3f578251825591602001919060010190610c24565b5b509050610c4d9190610c51565b5090565b610c7391905b80821115610c6f576000816000905550600101610c57565b5090565b9056fea165627a7a72305820fab0c36ede497baffce1b9a68ee6631024dfe2ecbde8f1e1cbbbea8f84b125500029",
  "source": "pragma solidity ^0.5.0;\n \ncontract EventTicketsV2 {\n    address payable owner = msg.sender;\n    uint   PRICE_TICKET = 1 ether;\n    uint idGenerator;\n     \n    struct Event {\n        string description;\n        string website;\n        uint tickets;\n        uint sales;\n        mapping(address => uint) buyers;\n        bool openSales;\n    }\n     \n    mapping(uint => Event) events;\n     \n    modifier onlyOwner() {\n        require(msg.sender == owner);\n        _;\n    }\n     \n    function addEvent(string memory _desc, string memory _web, uint _tickets) onlyOwner public returns(uint) {\n        Event memory newEvent;\n        newEvent.description = _desc;\n        newEvent.website = _web;\n        newEvent.tickets = _tickets;\n        newEvent.openSales = true;\n        uint newEventId = idGenerator;\n        events[idGenerator] = newEvent;\n        ++idGenerator;\n        return newEventId;\n    }\n     \n    function readEvent(uint _id) view public returns(string memory, string memory, uint, uint, bool) {\n        return (events[_id].description, events[_id].website, events[_id].tickets, events[_id].sales, events[_id].openSales);\n    }\n     \n    function buyTickets(uint _id, uint _numTickets) public payable {\n        require(events[_id].openSales == true);\n        require(msg.value >= _numTickets * PRICE_TICKET);\n        require(events[_id].tickets - events[_id].sales >= _numTickets);\n        events[_id].buyers[msg.sender] += _numTickets;\n        events[_id].sales += _numTickets;\n        uint paymentChange = msg.value - _numTickets * PRICE_TICKET;\n        if (paymentChange > 0) {\n            address(msg.sender).transfer(paymentChange);\n        }\n    }\n     \n    function getRefund(uint _id) public {\n        require(events[_id].buyers[msg.sender] > 0);\n        uint refundTickets = events[_id].buyers[msg.sender];\n        events[_id].sales -= refundTickets;\n        delete events[_id].buyers[msg.sender];\n        address(msg.sender).transfer(refundTickets * PRICE_TICKET);\n    }\n     \n    function getBuyerNumberTickets(uint _id) public view returns(uint) {\n        return events[_id].buyers[msg.sender];\n    }\n     \n    function endSale(uint _id) onlyOwner public {\n        events[_id].openSales = false;\n        owner.transfer(events[_id].sales * 1 ether);\n    }\n}",
  "sourcePath": "/home/josh/Documents/event-ticket-exercise/contracts/EventTicketsV2.sol",
  "compiler": {
    "name": "solc",
    "version": "0.5.0+commit.1d4f565a.Emscripten.clang"
  },
  "schemaVersion": "3.0.6",
  "updatedAt": "2019-04-23T19:51:49.464Z",
  "devdoc": {
    "methods": {}
  },
  "userdoc": {
    "methods": {}
  }
}